:100000000C9476000C9480000C9480000C9480007A
:100010000C9480000C9480000C9480000C94800060
:100020000C9480000C9480000C9480000C94800050
:100030000C9480000C9480000C9480000C94800040
:100040000C9480000C9480000C9480000C94800030
:100050000C9480000C9480000C9480000C94800020
:100060000C9480000C9480000C9480000C94800010
:100070000C9480000C9480000C9480000C94800000
:100080000C9480000C9480000C9480000C948000F0
:100090000C9480000C9480000C9480000C948000E0
:1000A0000C9480000C9480000C9480000C948000D0
:1000B0000C9480000C9480000C9480000C948000C0
:1000C0000C9480000C9480000C9480000C948000B0
:1000D0000C9480000C9480000C9480000C948000A0
:1000E0000C9480000C9480000C94800011241FBE9E
:1000F000CFEFCDBFDFE7DEBF0E9482000C949C00F3
:100100000C94000080E480934104E0E4F4E08583F3
:100110002FEF34E39CE0215030409040E1F700C0E5
:10012000000086832FEF34E39CE021503040904064
:0C013000E1F700C00000EBCFF894FFCF17
:00000001FF
